{
  "_format": "hh-sol-artifact-1",
  "contractName": "Oricheck",
  "sourceName": "contracts/Oricheck.sol",
  "abi": [
    {
      "inputs": [
        {
          "internalType": "string",
          "name": "_productSerial",
          "type": "string"
        }
      ],
      "name": "addProduct",
      "outputs": [],
      "stateMutability": "nonpayable",
      "type": "function"
    },
    {
      "inputs": [
        {
          "internalType": "string",
          "name": "_productSerial",
          "type": "string"
        }
      ],
      "name": "getProductHistory",
      "outputs": [
        {
          "internalType": "address[]",
          "name": "",
          "type": "address[]"
        }
      ],
      "stateMutability": "view",
      "type": "function"
    },
    {
      "inputs": [
        {
          "internalType": "string",
          "name": "_productSerial",
          "type": "string"
        },
        {
          "internalType": "address",
          "name": "_receiver",
          "type": "address"
        }
      ],
      "name": "transferProduct",
      "outputs": [],
      "stateMutability": "nonpayable",
      "type": "function"
    }
  ],
  "bytecode": "0x608060405234801561001057600080fd5b50610a3c806100206000396000f3fe608060405234801561001057600080fd5b50600436106100415760003560e01c806390afcb9d14610046578063d4f5045314610062578063dfe00c5114610092575b600080fd5b610060600480360381019061005b9190610608565b6100ae565b005b61007c60048036038101906100779190610664565b61023b565b604051610089919061076b565b60405180910390f35b6100ac60048036038101906100a79190610664565b610341565b005b60006100b98361041d565b9050600080600083815260200190815260200160002090506000818054905011610118576040517f08c379a000000000000000000000000000000000000000000000000000000000815260040161010f906107ea565b60405180910390fd5b3373ffffffffffffffffffffffffffffffffffffffff1681600183805490506101419190610843565b8154811061015257610151610877565b5b9060005260206000200160009054906101000a900473ffffffffffffffffffffffffffffffffffffffff1673ffffffffffffffffffffffffffffffffffffffff16146101d3576040517f08c379a00000000000000000000000000000000000000000000000000000000081526004016101ca906108f2565b60405180910390fd5b80839080600181540180825580915050600190039060005260206000200160009091909190916101000a81548173ffffffffffffffffffffffffffffffffffffffff021916908373ffffffffffffffffffffffffffffffffffffffff16021790555050505050565b606060006102488361041d565b9050600080600083815260200190815260200160002080549050116102a2576040517f08c379a0000000000000000000000000000000000000000000000000000000008152600401610299906107ea565b60405180910390fd5b60008082815260200190815260200160002080548060200260200160405190810160405280929190818152602001828054801561033457602002820191906000526020600020905b8160009054906101000a900473ffffffffffffffffffffffffffffffffffffffff1673ffffffffffffffffffffffffffffffffffffffff16815260200190600101908083116102ea575b5050505050915050919050565b600061034c8261041d565b9050600080600083815260200190815260200160002080549050146103a6576040517f08c379a000000000000000000000000000000000000000000000000000000000815260040161039d9061095e565b60405180910390fd5b600080828152602001908152602001600020339080600181540180825580915050600190039060005260206000200160009091909190916101000a81548173ffffffffffffffffffffffffffffffffffffffff021916908373ffffffffffffffffffffffffffffffffffffffff1602179055505050565b60008160405160200161043091906109ef565b6040516020818303038152906040528051906020012060001c9050919050565b6000604051905090565b600080fd5b600080fd5b600080fd5b600080fd5b6000601f19601f8301169050919050565b7f4e487b7100000000000000000000000000000000000000000000000000000000600052604160045260246000fd5b6104b78261046e565b810181811067ffffffffffffffff821117156104d6576104d561047f565b5b80604052505050565b60006104e9610450565b90506104f582826104ae565b919050565b600067ffffffffffffffff8211156105155761051461047f565b5b61051e8261046e565b9050602081019050919050565b82818337600083830152505050565b600061054d610548846104fa565b6104df565b90508281526020810184848401111561056957610568610469565b5b61057484828561052b565b509392505050565b600082601f83011261059157610590610464565b5b81356105a184826020860161053a565b91505092915050565b600073ffffffffffffffffffffffffffffffffffffffff82169050919050565b60006105d5826105aa565b9050919050565b6105e5816105ca565b81146105f057600080fd5b50565b600081359050610602816105dc565b92915050565b6000806040838503121561061f5761061e61045a565b5b600083013567ffffffffffffffff81111561063d5761063c61045f565b5b6106498582860161057c565b925050602061065a858286016105f3565b9150509250929050565b60006020828403121561067a5761067961045a565b5b600082013567ffffffffffffffff8111156106985761069761045f565b5b6106a48482850161057c565b91505092915050565b600081519050919050565b600082825260208201905092915050565b6000819050602082019050919050565b6106e2816105ca565b82525050565b60006106f483836106d9565b60208301905092915050565b6000602082019050919050565b6000610718826106ad565b61072281856106b8565b935061072d836106c9565b8060005b8381101561075e57815161074588826106e8565b975061075083610700565b925050600181019050610731565b5085935050505092915050565b60006020820190508181036000830152610785818461070d565b905092915050565b600082825260208201905092915050565b7f50726f6475637420646f65736e27742065786973740000000000000000000000600082015250565b60006107d460158361078d565b91506107df8261079e565b602082019050919050565b60006020820190508181036000830152610803816107c7565b9050919050565b6000819050919050565b7f4e487b7100000000000000000000000000000000000000000000000000000000600052601160045260246000fd5b600061084e8261080a565b91506108598361080a565b925082820390508181111561087157610870610814565b5b92915050565b7f4e487b7100000000000000000000000000000000000000000000000000000000600052603260045260246000fd5b7f556e617574686f72697a65642073656c6c000000000000000000000000000000600082015250565b60006108dc60118361078d565b91506108e7826108a6565b602082019050919050565b6000602082019050818103600083015261090b816108cf565b9050919050565b7f50726f6475637420616c72656164792065786973747300000000000000000000600082015250565b600061094860168361078d565b915061095382610912565b602082019050919050565b600060208201905081810360008301526109778161093b565b9050919050565b600081519050919050565b600081905092915050565b60005b838110156109b2578082015181840152602081019050610997565b60008484015250505050565b60006109c98261097e565b6109d38185610989565b93506109e3818560208601610994565b80840191505092915050565b60006109fb82846109be565b91508190509291505056fea2646970667358221220e1b53b101429563d5300f74208ab538b560786867bc750057614c5d651dc359164736f6c63430008120033",
  "linkReferences": {},
  "deployedLinkReferences": {}
}