{
  "_format": "hh-sol-artifact-1",
  "contractName": "Oricheck",
  "sourceName": "contracts/Oricheck.sol",
  "abi": [
    {
      "inputs": [
        {
          "internalType": "string",
          "name": "_productSerial",
          "type": "string"
        }
      ],
      "name": "addProduct",
      "outputs": [],
      "stateMutability": "nonpayable",
      "type": "function"
    },
    {
      "inputs": [
        {
          "internalType": "string",
          "name": "_productSerial",
          "type": "string"
        }
      ],
      "name": "getProductHistory",
      "outputs": [
        {
          "internalType": "address[]",
          "name": "",
          "type": "address[]"
        }
      ],
      "stateMutability": "view",
      "type": "function"
    },
    {
      "inputs": [
        {
          "internalType": "string",
          "name": "_productSerial",
          "type": "string"
        },
        {
          "internalType": "address",
          "name": "_receiver",
          "type": "address"
        }
      ],
      "name": "transferProduct",
      "outputs": [],
      "stateMutability": "nonpayable",
      "type": "function"
    }
  ],
  "bytecode": "0x608060405234801561001057600080fd5b5061099a806100206000396000f3fe608060405234801561001057600080fd5b50600436106100415760003560e01c806390afcb9d14610046578063d4f5045314610062578063dfe00c5114610092575b600080fd5b610060600480360381019061005b91906105d2565b6100ae565b005b61007c6004803603810190610077919061062e565b610205565b6040516100899190610735565b60405180910390f35b6100ac60048036038101906100a7919061062e565b61030b565b005b60006100b9836103e7565b9050600080600083815260200190815260200160002090506000818054905011610118576040517f08c379a000000000000000000000000000000000000000000000000000000000815260040161010f906107b4565b60405180910390fd5b3373ffffffffffffffffffffffffffffffffffffffff168160018380549050610141919061080d565b8154811061015257610151610841565b5b9060005260206000200160009054906101000a900473ffffffffffffffffffffffffffffffffffffffff1673ffffffffffffffffffffffffffffffffffffffff161461019d57600080fd5b80839080600181540180825580915050600190039060005260206000200160009091909190916101000a81548173ffffffffffffffffffffffffffffffffffffffff021916908373ffffffffffffffffffffffffffffffffffffffff16021790555050505050565b60606000610212836103e7565b90506000806000838152602001908152602001600020805490501161026c576040517f08c379a0000000000000000000000000000000000000000000000000000000008152600401610263906107b4565b60405180910390fd5b6000808281526020019081526020016000208054806020026020016040519081016040528092919081815260200182805480156102fe57602002820191906000526020600020905b8160009054906101000a900473ffffffffffffffffffffffffffffffffffffffff1673ffffffffffffffffffffffffffffffffffffffff16815260200190600101908083116102b4575b5050505050915050919050565b6000610316826103e7565b905060008060008381526020019081526020016000208054905014610370576040517f08c379a0000000000000000000000000000000000000000000000000000000008152600401610367906108bc565b60405180910390fd5b600080828152602001908152602001600020339080600181540180825580915050600190039060005260206000200160009091909190916101000a81548173ffffffffffffffffffffffffffffffffffffffff021916908373ffffffffffffffffffffffffffffffffffffffff1602179055505050565b6000816040516020016103fa919061094d565b6040516020818303038152906040528051906020012060001c9050919050565b6000604051905090565b600080fd5b600080fd5b600080fd5b600080fd5b6000601f19601f8301169050919050565b7f4e487b7100000000000000000000000000000000000000000000000000000000600052604160045260246000fd5b61048182610438565b810181811067ffffffffffffffff821117156104a05761049f610449565b5b80604052505050565b60006104b361041a565b90506104bf8282610478565b919050565b600067ffffffffffffffff8211156104df576104de610449565b5b6104e882610438565b9050602081019050919050565b82818337600083830152505050565b6000610517610512846104c4565b6104a9565b90508281526020810184848401111561053357610532610433565b5b61053e8482856104f5565b509392505050565b600082601f83011261055b5761055a61042e565b5b813561056b848260208601610504565b91505092915050565b600073ffffffffffffffffffffffffffffffffffffffff82169050919050565b600061059f82610574565b9050919050565b6105af81610594565b81146105ba57600080fd5b50565b6000813590506105cc816105a6565b92915050565b600080604083850312156105e9576105e8610424565b5b600083013567ffffffffffffffff81111561060757610606610429565b5b61061385828601610546565b9250506020610624858286016105bd565b9150509250929050565b60006020828403121561064457610643610424565b5b600082013567ffffffffffffffff81111561066257610661610429565b5b61066e84828501610546565b91505092915050565b600081519050919050565b600082825260208201905092915050565b6000819050602082019050919050565b6106ac81610594565b82525050565b60006106be83836106a3565b60208301905092915050565b6000602082019050919050565b60006106e282610677565b6106ec8185610682565b93506106f783610693565b8060005b8381101561072857815161070f88826106b2565b975061071a836106ca565b9250506001810190506106fb565b5085935050505092915050565b6000602082019050818103600083015261074f81846106d7565b905092915050565b600082825260208201905092915050565b7f50726f6475637420646f65736e27742065786973740000000000000000000000600082015250565b600061079e601583610757565b91506107a982610768565b602082019050919050565b600060208201905081810360008301526107cd81610791565b9050919050565b6000819050919050565b7f4e487b7100000000000000000000000000000000000000000000000000000000600052601160045260246000fd5b6000610818826107d4565b9150610823836107d4565b925082820390508181111561083b5761083a6107de565b5b92915050565b7f4e487b7100000000000000000000000000000000000000000000000000000000600052603260045260246000fd5b7f50726f6475637420616c72656164792065786973747300000000000000000000600082015250565b60006108a6601683610757565b91506108b182610870565b602082019050919050565b600060208201905081810360008301526108d581610899565b9050919050565b600081519050919050565b600081905092915050565b60005b838110156109105780820151818401526020810190506108f5565b60008484015250505050565b6000610927826108dc565b61093181856108e7565b93506109418185602086016108f2565b80840191505092915050565b6000610959828461091c565b91508190509291505056fea2646970667358221220d398f41c967758f5681fc66bb4c94c9c1b49ae80e49544fd2d834109fd9ecbc264736f6c63430008120033",
  "linkReferences": {},
  "deployedLinkReferences": {}
}